{
  "_format": "hh-sol-artifact-1",
  "contractName": "ManualToken",
  "sourceName": "contracts/ManualToken.sol",
  "abi": [
    {
      "inputs": [
        {
          "internalType": "address",
          "name": "",
          "type": "address"
        }
      ],
      "name": "balanceOf",
      "outputs": [
        {
          "internalType": "uint256",
          "name": "",
          "type": "uint256"
        }
      ],
      "stateMutability": "view",
      "type": "function"
    },
    {
      "inputs": [
        {
          "internalType": "address",
          "name": "from",
          "type": "address"
        },
        {
          "internalType": "address",
          "name": "to",
          "type": "address"
        },
        {
          "internalType": "uint256",
          "name": "amount",
          "type": "uint256"
        }
      ],
      "name": "transfer",
      "outputs": [],
      "stateMutability": "nonpayable",
      "type": "function"
    }
  ],
  "bytecode": "0x608060405234801561001057600080fd5b506103f0806100206000396000f3fe608060405234801561001057600080fd5b50600436106100365760003560e01c806370a082311461003b578063beabacc81461006b575b600080fd5b61005560048036038101906100509190610243565b610087565b6040516100629190610289565b60405180910390f35b610085600480360381019061008091906102d0565b61009f565b005b60006020528060005260406000206000915090505481565b806000808573ffffffffffffffffffffffffffffffffffffffff1673ffffffffffffffffffffffffffffffffffffffff168152602001908152602001600020546100e99190610352565b6000808573ffffffffffffffffffffffffffffffffffffffff1673ffffffffffffffffffffffffffffffffffffffff16815260200190815260200160002060008282546101369190610352565b92505081905550806000808473ffffffffffffffffffffffffffffffffffffffff1673ffffffffffffffffffffffffffffffffffffffff168152602001908152602001600020546101879190610386565b6000808473ffffffffffffffffffffffffffffffffffffffff1673ffffffffffffffffffffffffffffffffffffffff16815260200190815260200160002060008282546101d49190610386565b92505081905550505050565b600080fd5b600073ffffffffffffffffffffffffffffffffffffffff82169050919050565b6000610210826101e5565b9050919050565b61022081610205565b811461022b57600080fd5b50565b60008135905061023d81610217565b92915050565b600060208284031215610259576102586101e0565b5b60006102678482850161022e565b91505092915050565b6000819050919050565b61028381610270565b82525050565b600060208201905061029e600083018461027a565b92915050565b6102ad81610270565b81146102b857600080fd5b50565b6000813590506102ca816102a4565b92915050565b6000806000606084860312156102e9576102e86101e0565b5b60006102f78682870161022e565b93505060206103088682870161022e565b9250506040610319868287016102bb565b9150509250925092565b7f4e487b7100000000000000000000000000000000000000000000000000000000600052601160045260246000fd5b600061035d82610270565b915061036883610270565b92508282039050818111156103805761037f610323565b5b92915050565b600061039182610270565b915061039c83610270565b92508282019050808211156103b4576103b3610323565b5b9291505056fea2646970667358221220b68e07d43ca1e55c39bb266bc4b824d30d031c480d361b9cfbc65d3ccb85555764736f6c63430008180033",
  "linkReferences": {},
  "deployedLinkReferences": {}
}